{
  "_format": "hh-sol-artifact-1",
  "contractName": "TokenExchange",
  "sourceName": "contracts/exchange.sol",
  "abi": [
    {
      "inputs": [],
      "stateMutability": "nonpayable",
      "type": "constructor"
    },
    {
      "anonymous": false,
      "inputs": [
        {
          "indexed": true,
          "internalType": "address",
          "name": "previousOwner",
          "type": "address"
        },
        {
          "indexed": true,
          "internalType": "address",
          "name": "newOwner",
          "type": "address"
        }
      ],
      "name": "OwnershipTransferred",
      "type": "event"
    },
    {
      "inputs": [
        {
          "internalType": "uint256",
          "name": "min_exchange_rate",
          "type": "uint256"
        },
        {
          "internalType": "uint256",
          "name": "max_exchange_rate",
          "type": "uint256"
        }
      ],
      "name": "addLiquidity",
      "outputs": [],
      "stateMutability": "payable",
      "type": "function"
    },
    {
      "inputs": [
        {
          "internalType": "uint256",
          "name": "amountTokens",
          "type": "uint256"
        }
      ],
      "name": "createPool",
      "outputs": [],
      "stateMutability": "payable",
      "type": "function"
    },
    {
      "inputs": [],
      "name": "exchange_name",
      "outputs": [
        {
          "internalType": "string",
          "name": "",
          "type": "string"
        }
      ],
      "stateMutability": "view",
      "type": "function"
    },
    {
      "inputs": [],
      "name": "getLiquidity",
      "outputs": [
        {
          "internalType": "uint256",
          "name": "",
          "type": "uint256"
        },
        {
          "internalType": "uint256",
          "name": "",
          "type": "uint256"
        }
      ],
      "stateMutability": "view",
      "type": "function"
    },
    {
      "inputs": [],
      "name": "getSwapFee",
      "outputs": [
        {
          "internalType": "uint256",
          "name": "",
          "type": "uint256"
        },
        {
          "internalType": "uint256",
          "name": "",
          "type": "uint256"
        }
      ],
      "stateMutability": "view",
      "type": "function"
    },
    {
      "inputs": [],
      "name": "owner",
      "outputs": [
        {
          "internalType": "address",
          "name": "",
          "type": "address"
        }
      ],
      "stateMutability": "view",
      "type": "function"
    },
    {
      "inputs": [
        {
          "internalType": "uint256",
          "name": "min_exchange_rate",
          "type": "uint256"
        },
        {
          "internalType": "uint256",
          "name": "max_exchange_rate",
          "type": "uint256"
        }
      ],
      "name": "removeAllLiquidity",
      "outputs": [],
      "stateMutability": "payable",
      "type": "function"
    },
    {
      "inputs": [
        {
          "internalType": "uint256",
          "name": "amountETH",
          "type": "uint256"
        },
        {
          "internalType": "uint256",
          "name": "min_exchange_rate",
          "type": "uint256"
        },
        {
          "internalType": "uint256",
          "name": "max_exchange_rate",
          "type": "uint256"
        }
      ],
      "name": "removeLiquidity",
      "outputs": [],
      "stateMutability": "payable",
      "type": "function"
    },
    {
      "inputs": [],
      "name": "renounceOwnership",
      "outputs": [],
      "stateMutability": "nonpayable",
      "type": "function"
    },
    {
      "inputs": [
        {
          "internalType": "uint256",
          "name": "max_exchange_rate",
          "type": "uint256"
        }
      ],
      "name": "swapETHForTokens",
      "outputs": [],
      "stateMutability": "payable",
      "type": "function"
    },
    {
      "inputs": [
        {
          "internalType": "uint256",
          "name": "amountTokens",
          "type": "uint256"
        },
        {
          "internalType": "uint256",
          "name": "max_exchange_rate",
          "type": "uint256"
        }
      ],
      "name": "swapTokensForETH",
      "outputs": [],
      "stateMutability": "payable",
      "type": "function"
    },
    {
      "inputs": [],
      "name": "token",
      "outputs": [
        {
          "internalType": "contract Token",
          "name": "",
          "type": "address"
        }
      ],
      "stateMutability": "view",
      "type": "function"
    },
    {
      "inputs": [
        {
          "internalType": "address",
          "name": "newOwner",
          "type": "address"
        }
      ],
      "name": "transferOwnership",
      "outputs": [],
      "stateMutability": "nonpayable",
      "type": "function"
    }
  ],
  "bytecode": "0x60806040526040518060400160405280600c81526020017f5354442045786368616e67650000000000000000000000000000000000000000815250600190816200004a9190620004a9565b50735fbdb2315678afecb367f032d93f642f64180aa3600260006101000a81548173ffffffffffffffffffffffffffffffffffffffff021916908373ffffffffffffffffffffffffffffffffffffffff160217905550600260009054906101000a900473ffffffffffffffffffffffffffffffffffffffff16600360006101000a81548173ffffffffffffffffffffffffffffffffffffffff021916908373ffffffffffffffffffffffffffffffffffffffff16021790555060006004556000600555600060065560006007556000600a556001600b55620186a0600c55620186a0600e553480156200013c57600080fd5b506200015d620001516200016360201b60201c565b6200016b60201b60201c565b62000590565b600033905090565b60008060009054906101000a900473ffffffffffffffffffffffffffffffffffffffff169050816000806101000a81548173ffffffffffffffffffffffffffffffffffffffff021916908373ffffffffffffffffffffffffffffffffffffffff1602179055508173ffffffffffffffffffffffffffffffffffffffff168173ffffffffffffffffffffffffffffffffffffffff167f8be0079c531659141344cd1fd0a4f28419497f9722a3daafe3b4186f6b6457e060405160405180910390a35050565b600081519050919050565b7f4e487b7100000000000000000000000000000000000000000000000000000000600052604160045260246000fd5b7f4e487b7100000000000000000000000000000000000000000000000000000000600052602260045260246000fd5b60006002820490506001821680620002b157607f821691505b602082108103620002c757620002c662000269565b5b50919050565b60008190508160005260206000209050919050565b60006020601f8301049050919050565b600082821b905092915050565b600060088302620003317fffffffffffffffffffffffffffffffffffffffffffffffffffffffffffffffff82620002f2565b6200033d8683620002f2565b95508019841693508086168417925050509392505050565b6000819050919050565b6000819050919050565b60006200038a620003846200037e8462000355565b6200035f565b62000355565b9050919050565b6000819050919050565b620003a68362000369565b620003be620003b58262000391565b848454620002ff565b825550505050565b600090565b620003d5620003c6565b620003e28184846200039b565b505050565b5b818110156200040a57620003fe600082620003cb565b600181019050620003e8565b5050565b601f82111562000459576200042381620002cd565b6200042e84620002e2565b810160208510156200043e578190505b620004566200044d85620002e2565b830182620003e7565b50505b505050565b600082821c905092915050565b60006200047e600019846008026200045e565b1980831691505092915050565b60006200049983836200046b565b9150826002028217905092915050565b620004b4826200022f565b67ffffffffffffffff811115620004d057620004cf6200023a565b5b620004dc825462000298565b620004e98282856200040e565b600060209050601f8311600181146200052157600084156200050c578287015190505b6200051885826200048b565b86555062000588565b601f1984166200053186620002cd565b60005b828110156200055b5784890151825560018201915060208501945060208101905062000534565b868310156200057b578489015162000577601f8916826200046b565b8355505b6001600288020188555050505b505050505050565b612bac80620005a06000396000f3fe6080604052600436106100c25760003560e01c80638da5cb5b1161007f578063d4cadf6811610059578063d4cadf68146101dd578063f2fde38b14610209578063f694f7d114610232578063fc0c546a1461025d576100c2565b80638da5cb5b1461017a5780639cd441da146101a5578063a22280a6146101c1576100c2565b80630910a510146100c75780632eab2841146100f357806358ad6de41461010f578063715018a61461012b5780638259e6a014610142578063857620e11461015e575b600080fd5b3480156100d357600080fd5b506100dc610288565b6040516100ea929190611df1565b60405180910390f35b61010d60048036038101906101089190611e4b565b610299565b005b61012960048036038101906101249190611e78565b610665565b005b34801561013757600080fd5b50610140610a87565b005b61015c60048036038101906101579190611e4b565b610a9b565b005b61017860048036038101906101739190611eb8565b610e4b565b005b34801561018657600080fd5b5061018f611264565b60405161019c9190611f4c565b60405180910390f35b6101bf60048036038101906101ba9190611e78565b61128d565b005b6101db60048036038101906101d69190611e78565b611671565b005b3480156101e957600080fd5b506101f2611a87565b604051610200929190611df1565b60405180910390f35b34801561021557600080fd5b50610230600480360381019061022b9190611f93565b611a98565b005b34801561023e57600080fd5b50610247611b1b565b6040516102549190612050565b60405180910390f35b34801561026957600080fd5b50610272611ba9565b60405161027f91906120d1565b60405180910390f35b600080600454600554915091509091565b6000600454116102de576040517f08c379a00000000000000000000000000000000000000000000000000000000081526004016102d59061215e565b60405180910390fd5b600060055411610323576040517f08c379a000000000000000000000000000000000000000000000000000000000815260040161031a9061215e565b60405180910390fd5b60003411610366576040517f08c379a000000000000000000000000000000000000000000000000000000000815260040161035d906121ca565b60405180910390fd5b6000670de0b6b3a764000060045461037e9190612219565b3460055461038c919061225b565b600e546103999190612219565b6103a391906122be565b9050818111156103e8576040517f08c379a00000000000000000000000000000000000000000000000000000000081526004016103df9061233b565b60405180910390fd5b6000600c54346005546103fb919061225b565b6104059190612219565b600454346104139190612219565b600b54600c54610423919061235b565b61042d9190612219565b61043791906122be565b9050600360009054906101000a900473ffffffffffffffffffffffffffffffffffffffff1673ffffffffffffffffffffffffffffffffffffffff166370a08231306040518263ffffffff1660e01b81526004016104949190611f4c565b602060405180830381865afa1580156104b1573d6000803e3d6000fd5b505050506040513d601f19601f820116820180604052508101906104d591906123a4565b8110610516576040517f08c379a000000000000000000000000000000000000000000000000000000000815260040161050d9061241d565b60405180910390fd5b600360009054906101000a900473ffffffffffffffffffffffffffffffffffffffff1673ffffffffffffffffffffffffffffffffffffffff1663a9059cbb33836040518363ffffffff1660e01b815260040161057392919061243d565b6020604051808303816000875af1158015610592573d6000803e3d6000fd5b505050506040513d601f19601f820116820180604052508101906105b6919061249e565b50600360009054906101000a900473ffffffffffffffffffffffffffffffffffffffff1673ffffffffffffffffffffffffffffffffffffffff166370a08231306040518263ffffffff1660e01b81526004016106129190611f4c565b602060405180830381865afa15801561062f573d6000803e3d6000fd5b505050506040513d601f19601f8201168201806040525081019061065391906123a4565b60048190555047600581905550505050565b6000600454116106aa576040517f08c379a00000000000000000000000000000000000000000000000000000000081526004016106a19061215e565b60405180910390fd5b6000600554116106ef576040517f08c379a00000000000000000000000000000000000000000000000000000000081526004016106e69061215e565b60405180910390fd5b6106f98282611bcf565b6000600a54600860003373ffffffffffffffffffffffffffffffffffffffff1673ffffffffffffffffffffffffffffffffffffffff1681526020019081526020016000205460055461074b9190612219565b61075591906122be565b90506000600a54600860003373ffffffffffffffffffffffffffffffffffffffff1673ffffffffffffffffffffffffffffffffffffffff168152602001908152602001600020546004546107a99190612219565b6107b391906122be565b905060045481106107f9576040517f08c379a00000000000000000000000000000000000000000000000000000000081526004016107f090612517565b60405180910390fd5b600554821061083d576040517f08c379a000000000000000000000000000000000000000000000000000000000815260040161083490612517565b60405180910390fd5b600360009054906101000a900473ffffffffffffffffffffffffffffffffffffffff1673ffffffffffffffffffffffffffffffffffffffff1663a9059cbb33836040518363ffffffff1660e01b815260040161089a92919061243d565b6020604051808303816000875af11580156108b9573d6000803e3d6000fd5b505050506040513d601f19601f820116820180604052508101906108dd919061249e565b503373ffffffffffffffffffffffffffffffffffffffff166108fc839081150290604051600060405180830381858888f19350505050158015610924573d6000803e3d6000fd5b50600360009054906101000a900473ffffffffffffffffffffffffffffffffffffffff1673ffffffffffffffffffffffffffffffffffffffff166370a08231306040518263ffffffff1660e01b81526004016109809190611f4c565b602060405180830381865afa15801561099d573d6000803e3d6000fd5b505050506040513d601f19601f820116820180604052508101906109c191906123a4565b600481905550476005819055506005546004546109de9190612219565b600d81905550600860003373ffffffffffffffffffffffffffffffffffffffff1673ffffffffffffffffffffffffffffffffffffffff16815260200190815260200160002054600a6000828254610a35919061235b565b925050819055506000600860003373ffffffffffffffffffffffffffffffffffffffff1673ffffffffffffffffffffffffffffffffffffffff1681526020019081526020016000208190555050505050565b610a8f611c8e565b610a996000611d0c565b565b610aa3611c8e565b600060045414610ae8576040517f08c379a0000000000000000000000000000000000000000000000000000000008152600401610adf90612583565b60405180910390fd5b600060055414610b2d576040517f08c379a0000000000000000000000000000000000000000000000000000000008152600401610b24906125ef565b60405180910390fd5b60003411610b70576040517f08c379a0000000000000000000000000000000000000000000000000000000008152600401610b679061265b565b60405180910390fd5b6000600360009054906101000a900473ffffffffffffffffffffffffffffffffffffffff1673ffffffffffffffffffffffffffffffffffffffff166370a08231336040518263ffffffff1660e01b8152600401610bcd9190611f4c565b602060405180830381865afa158015610bea573d6000803e3d6000fd5b505050506040513d601f19601f82011682018060405250810190610c0e91906123a4565b905080821115610c53576040517f08c379a0000000000000000000000000000000000000000000000000000000008152600401610c4a906126ed565b60405180910390fd5b60008211610c96576040517f08c379a0000000000000000000000000000000000000000000000000000000008152600401610c8d90612759565b60405180910390fd5b600360009054906101000a900473ffffffffffffffffffffffffffffffffffffffff1673ffffffffffffffffffffffffffffffffffffffff166323b872dd3330856040518463ffffffff1660e01b8152600401610cf593929190612779565b6020604051808303816000875af1158015610d14573d6000803e3d6000fd5b505050506040513d601f19601f82011682018060405250810190610d38919061249e565b50600360009054906101000a900473ffffffffffffffffffffffffffffffffffffffff1673ffffffffffffffffffffffffffffffffffffffff166370a08231306040518263ffffffff1660e01b8152600401610d949190611f4c565b602060405180830381865afa158015610db1573d6000803e3d6000fd5b505050506040513d601f19601f82011682018060405250810190610dd591906123a4565b60048190555034600581905550600554600454610df29190612219565b600d81905550620186a0600a819055506064600860003373ffffffffffffffffffffffffffffffffffffffff1673ffffffffffffffffffffffffffffffffffffffff168152602001908152602001600020819055505050565b600060045411610e90576040517f08c379a0000000000000000000000000000000000000000000000000000000008152600401610e879061215e565b60405180910390fd5b600060055411610ed5576040517f08c379a0000000000000000000000000000000000000000000000000000000008152600401610ecc9061215e565b60405180910390fd5b610edf8282611bcf565b6000600554600a5485610ef29190612219565b610efc91906122be565b9050600860003373ffffffffffffffffffffffffffffffffffffffff1673ffffffffffffffffffffffffffffffffffffffff16815260200190815260200160002054811115610f80576040517f08c379a0000000000000000000000000000000000000000000000000000000008152600401610f7790612822565b60405180910390fd5b6000600a5482600454610f939190612219565b610f9d91906122be565b90506000600a5483600554610fb29190612219565b610fbc91906122be565b90506004548210611002576040517f08c379a0000000000000000000000000000000000000000000000000000000008152600401610ff990612517565b60405180910390fd5b6005548110611046576040517f08c379a000000000000000000000000000000000000000000000000000000000815260040161103d90612517565b60405180910390fd5b600360009054906101000a900473ffffffffffffffffffffffffffffffffffffffff1673ffffffffffffffffffffffffffffffffffffffff1663a9059cbb33846040518363ffffffff1660e01b81526004016110a392919061243d565b6020604051808303816000875af11580156110c2573d6000803e3d6000fd5b505050506040513d601f19601f820116820180604052508101906110e6919061249e565b503373ffffffffffffffffffffffffffffffffffffffff166108fc829081150290604051600060405180830381858888f1935050505015801561112d573d6000803e3d6000fd5b50600360009054906101000a900473ffffffffffffffffffffffffffffffffffffffff1673ffffffffffffffffffffffffffffffffffffffff166370a08231306040518263ffffffff1660e01b81526004016111899190611f4c565b602060405180830381865afa1580156111a6573d6000803e3d6000fd5b505050506040513d601f19601f820116820180604052508101906111ca91906123a4565b600481905550476005819055506005546004546111e79190612219565b600d8190555082600a60008282546111ff919061235b565b9250508190555082600860003373ffffffffffffffffffffffffffffffffffffffff1673ffffffffffffffffffffffffffffffffffffffff1681526020019081526020016000206000828254611255919061235b565b92505081905550505050505050565b60008060009054906101000a900473ffffffffffffffffffffffffffffffffffffffff16905090565b6000600454116112d2576040517f08c379a00000000000000000000000000000000000000000000000000000000081526004016112c99061215e565b60405180910390fd5b600060055411611317576040517f08c379a000000000000000000000000000000000000000000000000000000000815260040161130e9061215e565b60405180910390fd5b6000341161135a576040517f08c379a00000000000000000000000000000000000000000000000000000000081526004016113519061288e565b60405180910390fd5b6113648282611bcf565b6000600554600454346113779190612219565b61138191906122be565b90506000600360009054906101000a900473ffffffffffffffffffffffffffffffffffffffff1673ffffffffffffffffffffffffffffffffffffffff166370a08231336040518263ffffffff1660e01b81526004016113e09190611f4c565b602060405180830381865afa1580156113fd573d6000803e3d6000fd5b505050506040513d601f19601f8201168201806040525081019061142191906123a4565b905080821115611466576040517f08c379a000000000000000000000000000000000000000000000000000000000815260040161145d90612920565b60405180910390fd5b600360009054906101000a900473ffffffffffffffffffffffffffffffffffffffff1673ffffffffffffffffffffffffffffffffffffffff166323b872dd3330856040518463ffffffff1660e01b81526004016114c593929190612779565b6020604051808303816000875af11580156114e4573d6000803e3d6000fd5b505050506040513d601f19601f82011682018060405250810190611508919061249e565b50600360009054906101000a900473ffffffffffffffffffffffffffffffffffffffff1673ffffffffffffffffffffffffffffffffffffffff166370a08231306040518263ffffffff1660e01b81526004016115649190611f4c565b602060405180830381865afa158015611581573d6000803e3d6000fd5b505050506040513d601f19601f820116820180604052508101906115a591906123a4565b600481905550476005819055506005546004546115c29190612219565b600d81905550600554600a54346115d99190612219565b6115e391906122be565b600a60008282546115f4919061225b565b92505081905550600554600a543461160c9190612219565b61161691906122be565b600860003373ffffffffffffffffffffffffffffffffffffffff1673ffffffffffffffffffffffffffffffffffffffff1681526020019081526020016000206000828254611664919061225b565b9250508190555050505050565b6000600454116116b6576040517f08c379a00000000000000000000000000000000000000000000000000000000081526004016116ad9061215e565b60405180910390fd5b6000600554116116fb576040517f08c379a00000000000000000000000000000000000000000000000000000000081526004016116f29061215e565b60405180910390fd5b81600360009054906101000a900473ffffffffffffffffffffffffffffffffffffffff1673ffffffffffffffffffffffffffffffffffffffff166370a08231336040518263ffffffff1660e01b81526004016117579190611f4c565b602060405180830381865afa158015611774573d6000803e3d6000fd5b505050506040513d601f19601f8201168201806040525081019061179891906123a4565b10156117d9576040517f08c379a00000000000000000000000000000000000000000000000000000000081526004016117d09061298c565b60405180910390fd5b6000600554836004546117ec919061225b565b670de0b6b3a7640000600e546118029190612219565b61180c9190612219565b61181691906122be565b90508181111561185b576040517f08c379a00000000000000000000000000000000000000000000000000000000081526004016118529061233b565b60405180910390fd5b6000600c548460045461186e919061225b565b6118789190612219565b600554856118869190612219565b600b54600c54611896919061235b565b6118a09190612219565b6118aa91906122be565b90504781106118ee576040517f08c379a00000000000000000000000000000000000000000000000000000000081526004016118e5906129f8565b60405180910390fd5b600360009054906101000a900473ffffffffffffffffffffffffffffffffffffffff1673ffffffffffffffffffffffffffffffffffffffff166323b872dd3330876040518463ffffffff1660e01b815260040161194d93929190612779565b6020604051808303816000875af115801561196c573d6000803e3d6000fd5b505050506040513d601f19601f82011682018060405250810190611990919061249e565b503373ffffffffffffffffffffffffffffffffffffffff166108fc829081150290604051600060405180830381858888f193505050501580156119d7573d6000803e3d6000fd5b50600360009054906101000a900473ffffffffffffffffffffffffffffffffffffffff1673ffffffffffffffffffffffffffffffffffffffff166370a08231306040518263ffffffff1660e01b8152600401611a339190611f4c565b602060405180830381865afa158015611a50573d6000803e3d6000fd5b505050506040513d601f19601f82011682018060405250810190611a7491906123a4565b6004819055504760058190555050505050565b600080600b54600c54915091509091565b611aa0611c8e565b600073ffffffffffffffffffffffffffffffffffffffff168173ffffffffffffffffffffffffffffffffffffffff1603611b0f576040517f08c379a0000000000000000000000000000000000000000000000000000000008152600401611b0690612a8a565b60405180910390fd5b611b1881611d0c565b50565b60018054611b2890612ad9565b80601f0160208091040260200160405190810160405280929190818152602001828054611b5490612ad9565b8015611ba15780601f10611b7657610100808354040283529160200191611ba1565b820191906000526020600020905b815481529060010190602001808311611b8457829003601f168201915b505050505081565b600360009054906101000a900473ffffffffffffffffffffffffffffffffffffffff1681565b6000600554600454600e54670de0b6b3a7640000611bed9190612219565b611bf79190612219565b611c0191906122be565b905082811015611c46576040517f08c379a0000000000000000000000000000000000000000000000000000000008152600401611c3d9061233b565b60405180910390fd5b81811115611c89576040517f08c379a0000000000000000000000000000000000000000000000000000000008152600401611c809061233b565b60405180910390fd5b505050565b611c96611dd0565b73ffffffffffffffffffffffffffffffffffffffff16611cb4611264565b73ffffffffffffffffffffffffffffffffffffffff1614611d0a576040517f08c379a0000000000000000000000000000000000000000000000000000000008152600401611d0190612b56565b60405180910390fd5b565b60008060009054906101000a900473ffffffffffffffffffffffffffffffffffffffff169050816000806101000a81548173ffffffffffffffffffffffffffffffffffffffff021916908373ffffffffffffffffffffffffffffffffffffffff1602179055508173ffffffffffffffffffffffffffffffffffffffff168173ffffffffffffffffffffffffffffffffffffffff167f8be0079c531659141344cd1fd0a4f28419497f9722a3daafe3b4186f6b6457e060405160405180910390a35050565b600033905090565b6000819050919050565b611deb81611dd8565b82525050565b6000604082019050611e066000830185611de2565b611e136020830184611de2565b9392505050565b600080fd5b611e2881611dd8565b8114611e3357600080fd5b50565b600081359050611e4581611e1f565b92915050565b600060208284031215611e6157611e60611e1a565b5b6000611e6f84828501611e36565b91505092915050565b60008060408385031215611e8f57611e8e611e1a565b5b6000611e9d85828601611e36565b9250506020611eae85828601611e36565b9150509250929050565b600080600060608486031215611ed157611ed0611e1a565b5b6000611edf86828701611e36565b9350506020611ef086828701611e36565b9250506040611f0186828701611e36565b9150509250925092565b600073ffffffffffffffffffffffffffffffffffffffff82169050919050565b6000611f3682611f0b565b9050919050565b611f4681611f2b565b82525050565b6000602082019050611f616000830184611f3d565b92915050565b611f7081611f2b565b8114611f7b57600080fd5b50565b600081359050611f8d81611f67565b92915050565b600060208284031215611fa957611fa8611e1a565b5b6000611fb784828501611f7e565b91505092915050565b600081519050919050565b600082825260208201905092915050565b60005b83811015611ffa578082015181840152602081019050611fdf565b60008484015250505050565b6000601f19601f8301169050919050565b600061202282611fc0565b61202c8185611fcb565b935061203c818560208601611fdc565b61204581612006565b840191505092915050565b6000602082019050818103600083015261206a8184612017565b905092915050565b6000819050919050565b600061209761209261208d84611f0b565b612072565b611f0b565b9050919050565b60006120a98261207c565b9050919050565b60006120bb8261209e565b9050919050565b6120cb816120b0565b82525050565b60006020820190506120e660008301846120c2565b92915050565b7f4c697175696469747920706f6f6c20686173206e6f74206265656e206372656160008201527f7465642079657400000000000000000000000000000000000000000000000000602082015250565b6000612148602783611fcb565b9150612153826120ec565b604082019050919050565b600060208201905081810360008301526121778161213b565b9050919050565b7f4e6565642045544820746f207377617000000000000000000000000000000000600082015250565b60006121b4601083611fcb565b91506121bf8261217e565b602082019050919050565b600060208201905081810360008301526121e3816121a7565b9050919050565b7f4e487b7100000000000000000000000000000000000000000000000000000000600052601160045260246000fd5b600061222482611dd8565b915061222f83611dd8565b925082820261223d81611dd8565b91508282048414831517612254576122536121ea565b5b5092915050565b600061226682611dd8565b915061227183611dd8565b9250828201905080821115612289576122886121ea565b5b92915050565b7f4e487b7100000000000000000000000000000000000000000000000000000000600052601260045260246000fd5b60006122c982611dd8565b91506122d483611dd8565b9250826122e4576122e361228f565b5b828204905092915050565b7f536c69707061676520746f6f206c617267650000000000000000000000000000600082015250565b6000612325601283611fcb565b9150612330826122ef565b602082019050919050565b6000602082019050818103600083015261235481612318565b9050919050565b600061236682611dd8565b915061237183611dd8565b9250828203905081811115612389576123886121ea565b5b92915050565b60008151905061239e81611e1f565b92915050565b6000602082840312156123ba576123b9611e1a565b5b60006123c88482850161238f565b91505092915050565b7f4e6f7420656e6f7567682053544420696e2074686520706f6f6c000000000000600082015250565b6000612407601a83611fcb565b9150612412826123d1565b602082019050919050565b60006020820190508181036000830152612436816123fa565b9050919050565b60006040820190506124526000830185611f3d565b61245f6020830184611de2565b9392505050565b60008115159050919050565b61247b81612466565b811461248657600080fd5b50565b60008151905061249881612472565b92915050565b6000602082840312156124b4576124b3611e1a565b5b60006124c284828501612489565b91505092915050565b7f43616e27742072656d6f766520616c6c206c6971756964697479000000000000600082015250565b6000612501601a83611fcb565b915061250c826124cb565b602082019050919050565b60006020820190508181036000830152612530816124f4565b9050919050565b7f546f6b656e20726573657276657320776173206e6f7420300000000000000000600082015250565b600061256d601883611fcb565b915061257882612537565b602082019050919050565b6000602082019050818103600083015261259c81612560565b9050919050565b7f45544820726573657276657320776173206e6f7420302e000000000000000000600082015250565b60006125d9601783611fcb565b91506125e4826125a3565b602082019050919050565b60006020820190508181036000830152612608816125cc565b9050919050565b7f4e6565642065746820746f2063726561746520706f6f6c2e0000000000000000600082015250565b6000612645601883611fcb565b91506126508261260f565b602082019050919050565b6000602082019050818103600083015261267481612638565b9050919050565b7f4e6f74206861766520656e6f75676820746f6b656e7320746f2063726561746560008201527f2074686520706f6f6c0000000000000000000000000000000000000000000000602082015250565b60006126d7602983611fcb565b91506126e28261267b565b604082019050919050565b60006020820190508181036000830152612706816126ca565b9050919050565b7f4e65656420746f6b656e7320746f2063726561746520706f6f6c2e0000000000600082015250565b6000612743601b83611fcb565b915061274e8261270d565b602082019050919050565b6000602082019050818103600083015261277281612736565b9050919050565b600060608201905061278e6000830186611f3d565b61279b6020830185611f3d565b6127a86040830184611de2565b949350505050565b7f4e6f7420656e6f7567682073686172657320746f20776974686472617720676960008201527f76656e20616d6f756e7400000000000000000000000000000000000000000000602082015250565b600061280c602a83611fcb565b9150612817826127b0565b604082019050919050565b6000602082019050818103600083015261283b816127ff565b9050919050565b7f4e6565642065746820746f20616464206c697175696469747900000000000000600082015250565b6000612878601983611fcb565b915061288382612842565b602082019050919050565b600060208201905081810360008301526128a78161286b565b9050919050565b7f4e6f7420656e6f75676820746f6b656e7320746f20616464206c69717569646960008201527f7479000000000000000000000000000000000000000000000000000000000000602082015250565b600061290a602283611fcb565b9150612915826128ae565b604082019050919050565b60006020820190508181036000830152612939816128fd565b9050919050565b7f4e6f7420656e6f7567682053544420746f207377617000000000000000000000600082015250565b6000612976601683611fcb565b915061298182612940565b602082019050919050565b600060208201905081810360008301526129a581612969565b9050919050565b7f4e6f7420656e6f7567682045544820696e2074686520706f6f6c000000000000600082015250565b60006129e2601a83611fcb565b91506129ed826129ac565b602082019050919050565b60006020820190508181036000830152612a11816129d5565b9050919050565b7f4f776e61626c653a206e6577206f776e657220697320746865207a65726f206160008201527f6464726573730000000000000000000000000000000000000000000000000000602082015250565b6000612a74602683611fcb565b9150612a7f82612a18565b604082019050919050565b60006020820190508181036000830152612aa381612a67565b9050919050565b7f4e487b7100000000000000000000000000000000000000000000000000000000600052602260045260246000fd5b60006002820490506001821680612af157607f821691505b602082108103612b0457612b03612aaa565b5b50919050565b7f4f776e61626c653a2063616c6c6572206973206e6f7420746865206f776e6572600082015250565b6000612b40602083611fcb565b9150612b4b82612b0a565b602082019050919050565b60006020820190508181036000830152612b6f81612b33565b905091905056fea2646970667358221220f694cbfea163bde8ac276496e728022623edd4ca85d41b392a164b9548b48c4564736f6c63430008110033",
  "linkReferences": {},
  "deployedLinkReferences": {}
}