{
  "_format": "hh-sol-artifact-1",
  "contractName": "Splitwise",
  "sourceName": "contracts/mycontract.sol",
  "abi": [
    {
      "inputs": [
        {
          "internalType": "address",
          "name": "creditor",
          "type": "address"
        },
        {
          "internalType": "uint32",
          "name": "amount",
          "type": "uint32"
        },
        {
          "internalType": "address[]",
          "name": "cycle",
          "type": "address[]"
        },
        {
          "internalType": "uint32",
          "name": "cycle_val",
          "type": "uint32"
        }
      ],
      "name": "add_IOU",
      "outputs": [],
      "stateMutability": "nonpayable",
      "type": "function"
    },
    {
      "inputs": [
        {
          "internalType": "address",
          "name": "debtor",
          "type": "address"
        },
        {
          "internalType": "address",
          "name": "creditor",
          "type": "address"
        }
      ],
      "name": "lookup",
      "outputs": [
        {
          "internalType": "uint32",
          "name": "",
          "type": "uint32"
        }
      ],
      "stateMutability": "view",
      "type": "function"
    }
  ],
  "bytecode": "0x608060405234801561001057600080fd5b50610c4c806100206000396000f3fe608060405234801561001057600080fd5b50600436106100365760003560e01c8063713584a61461003b5780637a8790b41461006b575b600080fd5b610055600480360381019061005091906106eb565b610087565b604051610062919061074a565b60405180910390f35b610085600480360381019061008091906108ea565b61011d565b005b60008060008473ffffffffffffffffffffffffffffffffffffffff1673ffffffffffffffffffffffffffffffffffffffff16815260200190815260200160002060008373ffffffffffffffffffffffffffffffffffffffff1673ffffffffffffffffffffffffffffffffffffffff16815260200190815260200160002060009054906101000a900463ffffffff16905092915050565b60008363ffffffff1611610166576040517f08c379a000000000000000000000000000000000000000000000000000000000815260040161015d906109ca565b60405180910390fd5b3373ffffffffffffffffffffffffffffffffffffffff168473ffffffffffffffffffffffffffffffffffffffff16036101d4576040517f08c379a00000000000000000000000000000000000000000000000000000000081526004016101cb90610a36565b60405180910390fd5b6102696000803373ffffffffffffffffffffffffffffffffffffffff1673ffffffffffffffffffffffffffffffffffffffff16815260200190815260200160002060008673ffffffffffffffffffffffffffffffffffffffff1673ffffffffffffffffffffffffffffffffffffffff16815260200190815260200160002060009054906101000a900463ffffffff168461037e565b6000803373ffffffffffffffffffffffffffffffffffffffff1673ffffffffffffffffffffffffffffffffffffffff16815260200190815260200160002060008673ffffffffffffffffffffffffffffffffffffffff1673ffffffffffffffffffffffffffffffffffffffff16815260200190815260200160002060008282829054906101000a900463ffffffff166103029190610a85565b92506101000a81548163ffffffff021916908363ffffffff16021790555060008163ffffffff16146103785761033882826103b2565b610377576040517f08c379a000000000000000000000000000000000000000000000000000000000815260040161036e90610b09565b60405180910390fd5b5b50505050565b600080828461038d9190610a85565b90508363ffffffff168163ffffffff1610156103a857600080fd5b8091505092915050565b600082600184516103c39190610b33565b815181106103d4576103d3610b67565b5b602002602001015173ffffffffffffffffffffffffffffffffffffffff168360008151811061040657610405610b67565b5b602002602001015173ffffffffffffffffffffffffffffffffffffffff16146104325760009050610673565b600a835111156104455760009050610673565b6000600190505b8351811015610551578263ffffffff166000808660018561046d9190610b33565b8151811061047e5761047d610b67565b5b602002602001015173ffffffffffffffffffffffffffffffffffffffff1673ffffffffffffffffffffffffffffffffffffffff16815260200190815260200160002060008684815181106104d5576104d4610b67565b5b602002602001015173ffffffffffffffffffffffffffffffffffffffff1673ffffffffffffffffffffffffffffffffffffffff16815260200190815260200160002060009054906101000a900463ffffffff1663ffffffff16101561053e576000915050610673565b808061054990610b96565b91505061044c565b506000600190505b835181101561066d5782600080866001856105749190610b33565b8151811061058557610584610b67565b5b602002602001015173ffffffffffffffffffffffffffffffffffffffff1673ffffffffffffffffffffffffffffffffffffffff16815260200190815260200160002060008684815181106105dc576105db610b67565b5b602002602001015173ffffffffffffffffffffffffffffffffffffffff1673ffffffffffffffffffffffffffffffffffffffff16815260200190815260200160002060008282829054906101000a900463ffffffff1661063c9190610bde565b92506101000a81548163ffffffff021916908363ffffffff160217905550808061066590610b96565b915050610559565b50600190505b92915050565b6000604051905090565b600080fd5b600080fd5b600073ffffffffffffffffffffffffffffffffffffffff82169050919050565b60006106b88261068d565b9050919050565b6106c8816106ad565b81146106d357600080fd5b50565b6000813590506106e5816106bf565b92915050565b6000806040838503121561070257610701610683565b5b6000610710858286016106d6565b9250506020610721858286016106d6565b9150509250929050565b600063ffffffff82169050919050565b6107448161072b565b82525050565b600060208201905061075f600083018461073b565b92915050565b61076e8161072b565b811461077957600080fd5b50565b60008135905061078b81610765565b92915050565b600080fd5b6000601f19601f8301169050919050565b7f4e487b7100000000000000000000000000000000000000000000000000000000600052604160045260246000fd5b6107df82610796565b810181811067ffffffffffffffff821117156107fe576107fd6107a7565b5b80604052505050565b6000610811610679565b905061081d82826107d6565b919050565b600067ffffffffffffffff82111561083d5761083c6107a7565b5b602082029050602081019050919050565b600080fd5b600061086661086184610822565b610807565b905080838252602082019050602084028301858111156108895761088861084e565b5b835b818110156108b2578061089e88826106d6565b84526020840193505060208101905061088b565b5050509392505050565b600082601f8301126108d1576108d0610791565b5b81356108e1848260208601610853565b91505092915050565b6000806000806080858703121561090457610903610683565b5b6000610912878288016106d6565b94505060206109238782880161077c565b935050604085013567ffffffffffffffff81111561094457610943610688565b5b610950878288016108bc565b92505060606109618782880161077c565b91505092959194509250565b600082825260208201905092915050565b7f416d6f756e742068617320746f20626520706f73697469766521000000000000600082015250565b60006109b4601a8361096d565b91506109bf8261097e565b602082019050919050565b600060208201905081810360008301526109e3816109a7565b9050919050565b7f446562746f7220657175616c20746f206372656469746f722100000000000000600082015250565b6000610a2060198361096d565b9150610a2b826109ea565b602082019050919050565b60006020820190508181036000830152610a4f81610a13565b9050919050565b7f4e487b7100000000000000000000000000000000000000000000000000000000600052601160045260246000fd5b6000610a908261072b565b9150610a9b8361072b565b9250828201905063ffffffff811115610ab757610ab6610a56565b5b92915050565b7f496e76616c6964206379636c6520776173207370656369666965642100000000600082015250565b6000610af3601c8361096d565b9150610afe82610abd565b602082019050919050565b60006020820190508181036000830152610b2281610ae6565b9050919050565b6000819050919050565b6000610b3e82610b29565b9150610b4983610b29565b9250828203905081811115610b6157610b60610a56565b5b92915050565b7f4e487b7100000000000000000000000000000000000000000000000000000000600052603260045260246000fd5b6000610ba182610b29565b91507fffffffffffffffffffffffffffffffffffffffffffffffffffffffffffffffff8203610bd357610bd2610a56565b5b600182019050919050565b6000610be98261072b565b9150610bf48361072b565b9250828203905063ffffffff811115610c1057610c0f610a56565b5b9291505056fea26469706673582212208d082ec99a06281039d38ec0457a961f750c8c1a52f240ae3e0b1f22e7bb5fca64736f6c63430008110033",
  "linkReferences": {},
  "deployedLinkReferences": {}
}